{"abi":[{"type":"constructor","inputs":[{"name":"_endpoint","type":"address","internalType":"address"}],"stateMutability":"nonpayable"},{"type":"function","name":"endpoint","inputs":[],"outputs":[{"name":"","type":"address","internalType":"contract ILayerZeroEndpoint"}],"stateMutability":"view"},{"type":"function","name":"estimateFees","inputs":[{"name":"_dstChainId","type":"uint16","internalType":"uint16"},{"name":"","type":"bytes","internalType":"bytes"},{"name":"_payload","type":"bytes","internalType":"bytes"}],"outputs":[{"name":"nativeFee","type":"uint256","internalType":"uint256"},{"name":"zroFee","type":"uint256","internalType":"uint256"}],"stateMutability":"view"},{"type":"function","name":"feedIndexes","inputs":[{"name":"","type":"uint256","internalType":"uint256"}],"outputs":[{"name":"","type":"uint256","internalType":"uint256"}],"stateMutability":"view"},{"type":"function","name":"getFtsoV2CurrentFeedValues","inputs":[],"outputs":[{"name":"_feedValues","type":"uint256[]","internalType":"uint256[]"},{"name":"_decimals","type":"int8[]","internalType":"int8[]"},{"name":"_timestamp","type":"uint64","internalType":"uint64"}],"stateMutability":"view"},{"type":"function","name":"lzReceive","inputs":[{"name":"","type":"uint16","internalType":"uint16"},{"name":"","type":"bytes","internalType":"bytes"},{"name":"","type":"uint64","internalType":"uint64"},{"name":"","type":"bytes","internalType":"bytes"}],"outputs":[],"stateMutability":"view"},{"type":"function","name":"sendMessage","inputs":[{"name":"_dstChainId","type":"uint16","internalType":"uint16"},{"name":"_destination","type":"bytes","internalType":"bytes"},{"name":"_payload","type":"bytes","internalType":"bytes"}],"outputs":[],"stateMutability":"payable"}],"bytecode":{"object":"0x6080604090808252346101b55761002c906109c2803803809161002282856101ba565b83398101906101dd565b81519060a082016001600160401b0381118382101761019f5783526000908183526020926002848201526009858201526003606082015260059060056080820152600354600560035580600510610178575b5060038452848420845b8381106101635750505050606473ad67fe66660fb8dfe9d6b1b4240d8650e30f6019938060018060a01b031995808787541617865587519384809263413b07e560e11b8252846004830152600b60248301526a2330b9ba2ab83230ba32b960a91b60448301525afa9384156101585793610129575b505060018060a01b0380921683600154161760015516906002541617600255516107c590816101fd8239f35b610149929350803d10610151575b61014181836101ba565b8101906101dd565b9038806100fd565b503d610137565b8651903d90823e3d90fd5b825160ff168282015591860191600101610088565b60038552600586862091820191015b818110610194575061007e565b858155600101610187565b634e487b7160e01b600052604160045260246000fd5b600080fd5b601f909101601f19168101906001600160401b0382119082101761019f57604052565b908160209103126101b557516001600160a01b03811681036101b5579056fe6040608081526004908136101561001557600080fd5b600090813560e01c80621d35671461051057806345e380a3146104285780635e280f1114610400578063c662cc5914610326578063dae2f4bc146102d45763f601bc8b1461006257600080fd5b346102d057816003193601126102d05760019060018060a01b0360015416918382518094631168574f60e21b825260248201602080998401526003548091526044830190600385527fc2575a0e9e593c00f959f8c92f12db2869c3395a3b0502d05e2516446f71f85b90855b878c8383106102b857505050505082809103915afa9485156102ae57849085948697610178575b50949190835195606087016060885282518091528160808901930190855b8181106101655750505086820381880152808087519384815201960193805b83821061014e5767ffffffffffffffff8a16878a015288880389f35b8551810b8852968201969482019490840190610132565b8251855293830193918301918501610113565b94509550503d8085853e61018c818561060f565b83016060848203126102aa5783519367ffffffffffffffff948581116102a65781019082601f830112156102a6578151916101c683610777565b926101d38751948561060f565b808452898085019160051b8301019185831161028f57908a809201905b83821061029757505090508101518681116102935781019280601f8501121561029357835161021e81610777565b9461022b8851968761060f565b8186528a8087019260051b82010192831161028f57908a8894939201905b82821061026b575050500151948516850361026757909395386100f5565b8580fd5b90809293945051808b0b810361028b578152879392918b01908b01610249565b8a80fd5b8980fd5b8780fd5b815181529082019082016101f0565b8680fd5b8480fd5b82513d86823e3d90fd5b845486528c98508b97509094019392830192016100ce565b5080fd5b5082346103225760203660031901126103225735600354811015610322576003602093527fc2575a0e9e593c00f959f8c92f12db2869c3395a3b0502d05e2516446f71f85b01549051908152f35b8280fd5b508192610332366106bb565b91969360018060a09593951b036002541692875194610350866105dd565b868652843b156102a65787956103a66103c19361039261ffff978d519e8f9b8c9a8b9a62c5803160e81b8c5216908a015260c060248a015260c4890191610716565b906003199485888403016044890152610716565b913360648601528860848601528483030160a4850152610737565b039134905af180156102ae576103d5578380f35b67ffffffffffffffff83116103ed5750523880808380f35b634e487b7160e01b845260419052602483fd5b50346102d057816003193601126102d05760025490516001600160a01b039091168152602090f35b5091346102d0578261ffff9161043d366106bb565b9692509290506104ab60018060a01b036002541693610493875191610461836105dd565b8a83528851998a988997889763040a7bb160e41b8952169087015230602487015260a0604487015260a4860191610716565b90896064850152600319848303016084850152610737565b03915afa908115610506578280926104cc575b505082519182526020820152f35b915091508282813d83116104ff575b6104e5818361060f565b810103126104fc57506020815191015138806104be565b80fd5b503d6104db565b83513d84823e3d90fd5b5082903461032257608036600319011261032257813561ffff8116036103225767ffffffffffffffff6024358181116102aa576105509036908501610631565b50604435818116036105d9576064359081116105d9576105739036908401610631565b506002546001600160a01b0316330361058a578280f35b906020608492519162461bcd60e51b83528201526024808201527f4f6e6c7920656e64706f696e742063616e2063616c6c20746869732066756e636044820152633a34b7b760e11b6064820152fd5b8380fd5b6020810190811067ffffffffffffffff8211176105f957604052565b634e487b7160e01b600052604160045260246000fd5b90601f8019910116810190811067ffffffffffffffff8211176105f957604052565b81601f820112156106885780359067ffffffffffffffff82116105f95760405192610666601f8401601f19166020018561060f565b8284526020838301011161068857816000926020809301838601378301015290565b600080fd5b9181601f840112156106885782359167ffffffffffffffff8311610688576020838186019501011161068857565b9060606003198301126106885760043561ffff81168103610688579167ffffffffffffffff9160243583811161068857826106f89160040161068d565b93909392604435918211610688576107129160040161068d565b9091565b908060209392818452848401376000828201840152601f01601f1916010190565b919082519283825260005b848110610763575050826000602080949584010152601f8019910116010190565b602081830181015184830182015201610742565b67ffffffffffffffff81116105f95760051b6020019056fea2646970667358221220fe2265c7e61b99f02d0d174bc08c1eca9be7a059004d713ede688c864fb42d4464736f6c63430008180033","linkReferences":{}},"methodIdentifiers":{"endpoint()":"5e280f11","estimateFees(uint16,bytes,bytes)":"45e380a3","feedIndexes(uint256)":"dae2f4bc","getFtsoV2CurrentFeedValues()":"f601bc8b","lzReceive(uint16,bytes,uint64,bytes)":"001d3567","sendMessage(uint16,bytes,bytes)":"c662cc59"},"id":89}