{"abi":[{"type":"constructor","inputs":[{"name":"_endpoint","type":"address","internalType":"address"}],"stateMutability":"nonpayable"},{"type":"function","name":"endpoint","inputs":[],"outputs":[{"name":"","type":"address","internalType":"contract ILayerZeroEndpoint"}],"stateMutability":"view"},{"type":"function","name":"estimateFees","inputs":[{"name":"_dstChainId","type":"uint16","internalType":"uint16"},{"name":"_destination","type":"bytes","internalType":"bytes"},{"name":"_payload","type":"bytes","internalType":"bytes"}],"outputs":[{"name":"nativeFee","type":"uint256","internalType":"uint256"},{"name":"zroFee","type":"uint256","internalType":"uint256"}],"stateMutability":"view"},{"type":"function","name":"feedIndexes","inputs":[{"name":"","type":"uint256","internalType":"uint256"}],"outputs":[{"name":"","type":"uint256","internalType":"uint256"}],"stateMutability":"view"},{"type":"function","name":"getFtsoV2CurrentFeedValues","inputs":[],"outputs":[{"name":"_feedValues","type":"uint256[]","internalType":"uint256[]"},{"name":"_decimals","type":"int8[]","internalType":"int8[]"},{"name":"_timestamp","type":"uint64","internalType":"uint64"}],"stateMutability":"view"},{"type":"function","name":"lzReceive","inputs":[{"name":"_srcChainId","type":"uint16","internalType":"uint16"},{"name":"_srcAddress","type":"bytes","internalType":"bytes"},{"name":"_nonce","type":"uint64","internalType":"uint64"},{"name":"_payload","type":"bytes","internalType":"bytes"}],"outputs":[],"stateMutability":"nonpayable"},{"type":"function","name":"send","inputs":[{"name":"_dstChainId","type":"uint16","internalType":"uint16"},{"name":"_message","type":"string","internalType":"string"},{"name":"_options","type":"bytes","internalType":"bytes"}],"outputs":[],"stateMutability":"payable"},{"type":"event","name":"DecodedMessage","inputs":[{"name":"message","type":"string","indexed":false,"internalType":"string"},{"name":"value","type":"uint256","indexed":false,"internalType":"uint256"}],"anonymous":false},{"type":"event","name":"ReceivedMessage","inputs":[{"name":"srcChainId","type":"uint16","indexed":true,"internalType":"uint16"},{"name":"srcAddress","type":"bytes","indexed":true,"internalType":"bytes"},{"name":"nonce","type":"uint64","indexed":true,"internalType":"uint64"},{"name":"payload","type":"bytes","indexed":false,"internalType":"bytes"}],"anonymous":false},{"type":"event","name":"SendingMessage","inputs":[{"name":"dstChainId","type":"uint16","indexed":true,"internalType":"uint16"},{"name":"payload","type":"bytes","indexed":false,"internalType":"bytes"},{"name":"options","type":"bytes","indexed":false,"internalType":"bytes"}],"anonymous":false}],"bytecode":{"object":"0x6080604090808252346101b55761002c90610bf6803803809161002282856101ba565b83398101906101dd565b81519060a082016001600160401b0381118382101761019f5783526000908183526020926002848201526009858201526003606082015260059060056080820152600354600560035580600510610178575b5060038452848420845b8381106101635750505050606473ad67fe66660fb8dfe9d6b1b4240d8650e30f6019938060018060a01b031995808787541617865587519384809263413b07e560e11b8252846004830152600b60248301526a2330b9ba2ab83230ba32b960a91b60448301525afa9384156101585793610129575b505060018060a01b0380921683600154161760015516906002541617600255516109f990816101fd8239f35b610149929350803d10610151575b61014181836101ba565b8101906101dd565b9038806100fd565b503d610137565b8651903d90823e3d90fd5b825160ff168282015591860191600101610088565b60038552600586862091820191015b818110610194575061007e565b858155600101610187565b634e487b7160e01b600052604160045260246000fd5b600080fd5b601f909101601f19168101906001600160401b0382119082101761019f57604052565b908160209103126101b557516001600160a01b03811681036101b5579056fe6040608081526004908136101561001557600080fd5b600090813560e01c80621d3567146106b457806345e380a3146105545780635e280f111461052c578063dae2f4bc146104de578063dc6ab99d146102d45763f601bc8b1461006257600080fd5b346102d057816003193601126102d05760019060018060a01b0360015416918382518094631168574f60e21b825260248201602080998401526003548091526044830190600385527fc2575a0e9e593c00f959f8c92f12db2869c3395a3b0502d05e2516446f71f85b90855b878c8383106102b857505050505082809103915afa9485156102ae57849085948697610178575b50949190835195606087016060885282518091528160808901930190855b8181106101655750505086820381880152808087519384815201960193805b83821061014e5767ffffffffffffffff8a16878a015288880389f35b8551810b8852968201969482019490840190610132565b8251855293830193918301918501610113565b94509550503d8085853e61018c818561088c565b83016060848203126102aa5783519367ffffffffffffffff948581116102a65781019082601f830112156102a6578151916101c6836109ab565b926101d38751948561088c565b808452898085019160051b8301019185831161028f57908a809201905b83821061029757505090508101518681116102935781019280601f8501121561029357835161021e816109ab565b9461022b8851968761088c565b8186528a8087019260051b82010192831161028f57908a8894939201905b82821061026b575050500151948516850361026757909395386100f5565b8580fd5b90809293945051808b0b810361028b578152879392918b01908b01610249565b8a80fd5b8980fd5b8780fd5b815181529082019082016101f0565b8680fd5b8480fd5b82513d86823e3d90fd5b845486528c98508b97509094019392830192016100ce565b5080fd5b50829060603660031901126104da576102eb610876565b67ffffffffffffffff929060243584811161026757366023820112156102675761031e90369060248186013591016108e0565b6044358581116102a6576103539161033c6103619236908701610935565b929091875194859160208084015289830190610986565b03601f19810185528461088c565b855191868301838110898211176104c7579161038d9161ffff9389523485528a602086015236916108e0565b931691827f028b12065e382df332346773f4bd643023665b85c13b6590b3574de1f870c8028751888152806103d56103c78b830187610986565b828103602084015289610986565b0390a260018060a01b036002541691518651943060601b60208701526014865287860198891195808a1087176104b457908a95949392918a8a52843b156102a6576104768b9694879562c5803160e81b8752604484015260c06064840152610457610444610104850185610986565b6043199283868303016084870152610986565b903360a48501528960c48501528382030160e4840152603f1993610986565b0301925af180156104aa57610489578480f35b610497575052818080808480f35b634e487b7160e01b845260419052602483fd5b83513d87823e3d90fd5b634e487b7160e01b8b526041885260248bfd5b634e487b7160e01b8a526041875260248afd5b8280fd5b5082346104da5760203660031901126104da57356003548110156104da576003602093527fc2575a0e9e593c00f959f8c92f12db2869c3395a3b0502d05e2516446f71f85b01549051908152f35b50346102d057816003193601126102d05760025490516001600160a01b039091168152602090f35b5091346102d05760603660031901126102d05761056f610876565b67ffffffffffffffff91906024358381116102aa576105919036908401610935565b50506044358381116102aa576105aa9036908401610935565b600254875192956001600160a01b03919091169392919060208301908111838210176106a15761ffff9260c48a9796959361063c9389528a83528089519a8b998a98899863040a7bb160e41b8a52169088015230602488015260a060448801528160a4880152838701378a828287010152601f801991011684018a606486015260c08582030160848601520190610986565b03915afa9081156106975782809261065d575b505082519182526020820152f35b915091508282813d8311610690575b610676818361088c565b8101031261068d575060208151910151388061064f565b80fd5b503d61066c565b83513d84823e3d90fd5b634e487b7160e01b885260418652602488fd5b508290346104da5760803660031901126104da576106d0610876565b67ffffffffffffffff9190602435838111610267576106f29036908601610917565b90604435908482168092036102a657606435858111610293576107189036908801610917565b6002549096906001600160a01b031633036108275750835180845161074281836020809901610963565b8101039020907f0627062b7968b87a52fc6435ce86b79b37bb403c0edb109a34516d7fa1e190ea61ffff8651928684521691806107818782018b610986565b0390a48351840192828583860195031261026757818501519081116102675784019383603f860112156102675781850151906107bc826108c4565b946107c98551968761088c565b8286528483880101116102a65761080884927fe487dcd0ac988fcd7d317c5b9f1647159785ff57b218b8089d667f964abf6eee97848689019101610963565b015161081d8351948486958652850190610986565b918301520390a180f35b608490602086519162461bcd60e51b83528201526024808201527f4f6e6c7920656e64706f696e742063616e2063616c6c20746869732066756e636044820152633a34b7b760e11b6064820152fd5b6004359061ffff8216820361088757565b600080fd5b90601f8019910116810190811067ffffffffffffffff8211176108ae57604052565b634e487b7160e01b600052604160045260246000fd5b67ffffffffffffffff81116108ae57601f01601f191660200190565b9291926108ec826108c4565b916108fa604051938461088c565b829481845281830111610887578281602093846000960137010152565b9080601f8301121561088757816020610932933591016108e0565b90565b9181601f840112156108875782359167ffffffffffffffff8311610887576020838186019501011161088757565b60005b8381106109765750506000910152565b8181015183820152602001610966565b9060209161099f81518092818552858086019101610963565b601f01601f1916010190565b67ffffffffffffffff81116108ae5760051b6020019056fea26469706673582212202640aa7a600db502b21d7e845566f81e990a914b1fbc9fff457962e25e212bb164736f6c63430008180033","linkReferences":{}},"methodIdentifiers":{"endpoint()":"5e280f11","estimateFees(uint16,bytes,bytes)":"45e380a3","feedIndexes(uint256)":"dae2f4bc","getFtsoV2CurrentFeedValues()":"f601bc8b","lzReceive(uint16,bytes,uint64,bytes)":"001d3567","send(uint16,string,bytes)":"dc6ab99d"},"id":89}