{"abi":[{"type":"constructor","inputs":[],"stateMutability":"nonpayable"},{"type":"function","name":"feedIndexes","inputs":[{"name":"","type":"uint256","internalType":"uint256"}],"outputs":[{"name":"","type":"uint256","internalType":"uint256"}],"stateMutability":"view"},{"type":"function","name":"getFtsoV2CurrentFeedValues","inputs":[],"outputs":[{"name":"_feedValues","type":"uint256[]","internalType":"uint256[]"},{"name":"_decimals","type":"int8[]","internalType":"int8[]"},{"name":"_timestamp","type":"uint64","internalType":"uint64"}],"stateMutability":"view"}],"bytecode":{"object":"0x6080346101c65760a08101906001600160401b03808311828410176101b057604092835260008083526020926002848201526009858201526003606082015260059060056080820152600254600560025580600510610189575b5060028352848320835b8381106101745750505050606473ad67fe66660fb8dfe9d6b1b4240d8650e30f6019938060018060a01b031995808786541617855587519384809263413b07e560e11b8252846004830152600b60248301526a2330b9ba2ab83230ba32b960a91b60448301525afa93841561016a5783946100fb575b5050505060018060a01b03169060015416176001555161038690816101cc8239f35b908092939450903d8311610162575b601f8201601f191684019081118482101761014e57865282018290031261014a5751906001600160a01b03821682036101475750388080806100d9565b80fd5b5080fd5b634e487b7160e01b85526041600452602485fd5b3d915061010a565b86513d85823e3d90fd5b825160ff168282015591860191600101610063565b60028452600586852091820191015b8181106101a55750610059565b848155600101610198565b634e487b7160e01b600052604160045260246000fd5b600080fdfe6080604090808252600436101561001557600080fd5b600090813560e01c908163dae2f4bc146102ab575063f601bc8b1461003957600080fd5b346102a857806003193601126102a8576001808060a01b036001541692805191631168574f60e21b8352838360248101966020978860048401526002548091526044830190600285527f405787fa12a823e0f2b7631cc41b3ba8828b3321ca811111fa75cd3aa3bb5ace90855b878c83831061029057505050505082809103915afa94851561028657849085948697610150575b50949190835195606087016060885282518091528160808901930190855b81811061013d5750505086820381880152808087519384815201960193805b8382106101265767ffffffffffffffff8a16878a015288880389f35b8551810b885296820196948201949084019061010a565b82518552938301939183019185016100eb565b94509550503d8085853e6101648185610300565b83016060848203126102825783519367ffffffffffffffff9485811161027e5781019082601f8301121561027e5781519161019e83610338565b926101ab87519485610300565b808452898085019160051b8301019185831161026757908a809201905b83821061026f575050905081015186811161026b5781019280601f8501121561026b5783516101f681610338565b9461020388519687610300565b8186528a8087019260051b82010192831161026757908a8894939201905b828210610243575050500151948516850361023f57909395386100cd565b8580fd5b90809293945051808b0b8103610263578152879392918b01908b01610221565b8a80fd5b8980fd5b8780fd5b815181529082019082016101c8565b8680fd5b8480fd5b82513d86823e3d90fd5b845486528c98508b97509094019392830192016100a6565b80fd5b9050346102fc5760203660031901126102fc576004356002548110156102f8576002602093527f405787fa12a823e0f2b7631cc41b3ba8828b3321ca811111fa75cd3aa3bb5ace01548152f35b8280fd5b5080fd5b90601f8019910116810190811067ffffffffffffffff82111761032257604052565b634e487b7160e01b600052604160045260246000fd5b67ffffffffffffffff81116103225760051b6020019056fea264697066735822122052501b6bc3fc9ddbc8e0dc5c20039886bd96fc4c49dd0b0ccc861b751ce88fd564736f6c63430008180033","linkReferences":{}},"methodIdentifiers":{"feedIndexes(uint256)":"dae2f4bc","getFtsoV2CurrentFeedValues()":"f601bc8b"},"id":86}