{"abi":[{"type":"constructor","inputs":[{"name":"_endpoint","type":"address","internalType":"address"}],"stateMutability":"nonpayable"},{"type":"receive","stateMutability":"payable"},{"type":"function","name":"endpoint","inputs":[],"outputs":[{"name":"","type":"address","internalType":"contract ILayerZeroEndpoint"}],"stateMutability":"view"},{"type":"function","name":"estimateFees","inputs":[{"name":"_dstChainId","type":"uint16","internalType":"uint16"},{"name":"_destination","type":"bytes","internalType":"bytes"},{"name":"_payload","type":"bytes","internalType":"bytes"}],"outputs":[{"name":"nativeFee","type":"uint256","internalType":"uint256"},{"name":"zroFee","type":"uint256","internalType":"uint256"}],"stateMutability":"view"},{"type":"function","name":"feedIndexes","inputs":[{"name":"","type":"uint256","internalType":"uint256"}],"outputs":[{"name":"","type":"uint256","internalType":"uint256"}],"stateMutability":"view"},{"type":"function","name":"getFtsoV2CurrentFeedValues","inputs":[],"outputs":[{"name":"_feedValues","type":"uint256[]","internalType":"uint256[]"},{"name":"_decimals","type":"int8[]","internalType":"int8[]"},{"name":"_timestamp","type":"uint64","internalType":"uint64"}],"stateMutability":"view"},{"type":"function","name":"lzReceive","inputs":[{"name":"_srcChainId","type":"uint16","internalType":"uint16"},{"name":"_srcAddress","type":"bytes","internalType":"bytes"},{"name":"_nonce","type":"uint64","internalType":"uint64"},{"name":"_payload","type":"bytes","internalType":"bytes"}],"outputs":[],"stateMutability":"nonpayable"},{"type":"function","name":"send","inputs":[{"name":"_dstChainId","type":"uint16","internalType":"uint16"},{"name":"_message","type":"string","internalType":"string"},{"name":"_options","type":"bytes","internalType":"bytes"}],"outputs":[],"stateMutability":"payable"},{"type":"event","name":"DecodedMessage","inputs":[{"name":"message","type":"string","indexed":false,"internalType":"string"},{"name":"value","type":"uint256","indexed":false,"internalType":"uint256"}],"anonymous":false},{"type":"event","name":"ReceivedMessage","inputs":[{"name":"srcChainId","type":"uint16","indexed":true,"internalType":"uint16"},{"name":"srcAddress","type":"bytes","indexed":true,"internalType":"bytes"},{"name":"nonce","type":"uint64","indexed":true,"internalType":"uint64"},{"name":"payload","type":"bytes","indexed":false,"internalType":"bytes"}],"anonymous":false},{"type":"event","name":"SendingMessage","inputs":[{"name":"dstChainId","type":"uint16","indexed":true,"internalType":"uint16"},{"name":"payload","type":"bytes","indexed":false,"internalType":"bytes"},{"name":"options","type":"bytes","indexed":false,"internalType":"bytes"}],"anonymous":false}],"bytecode":{"object":"0x6080604090808252346200021c57620000329062000d86803803809162000027828562000221565b833981019062000245565b815160a081016001600160401b03811182821017620002065783526000918282526020916002838201526009858201526003606082015260059060056080820152600354600560035580600510620001dc575b5060038552838520855b838110620001c6575050506001600160a01b0391821693905083156200018257805473ad67fe66660fb8dfe9d6b1b4240d8650e30f60196001600160a01b031991821681178355865163413b07e560e11b815260048101869052600b60248201526a2330b9ba2ab83230ba32b960a91b60448201529194908190839060649082905afa92831562000177579262000143575b505016816001541617600155600254161760025551610b1f9081620002678239f35b620001679250803d106200016f575b6200015e818362000221565b81019062000245565b388062000121565b503d62000152565b8751903d90823e3d90fd5b845162461bcd60e51b815260048101849052601860248201527f496e76616c696420656e64706f696e74206164647265737300000000000000006044820152606490fd5b825160ff1682820155918501916001016200008f565b60038652600585872091820191015b818110620001fa575062000085565b868155600101620001eb565b634e487b7160e01b600052604160045260246000fd5b600080fd5b601f909101601f19168101906001600160401b038211908210176200020657604052565b908160209103126200021c57516001600160a01b03811681036200021c579056fe60406080815260049081361015610020575b5050361561001e57600080fd5b005b600090813560e01c80621d3567146107da57806345e380a31461067a5780635e280f1114610652578063dae2f4bc14610604578063dc6ab99d146102e05763f601bc8b1461006e5750610011565b346102dc57816003193601126102dc5760019060018060a01b0360015416918382518094631168574f60e21b825260248201602080998401526003548091526044830190600385527fc2575a0e9e593c00f959f8c92f12db2869c3395a3b0502d05e2516446f71f85b90855b878c8383106102c457505050505082809103915afa9485156102ba57849085948697610184575b50949190835195606087016060885282518091528160808901930190855b8181106101715750505086820381880152808087519384815201960193805b83821061015a5767ffffffffffffffff8a16878a015288880389f35b8551810b885296820196948201949084019061013e565b825185529383019391830191850161011f565b94509550503d8085853e61019881856109b2565b83016060848203126102b65783519367ffffffffffffffff948581116102b25781019082601f830112156102b2578151916101d283610ad1565b926101df875194856109b2565b808452898085019160051b8301019185831161029b57908a809201905b8382106102a3575050905081015186811161029f5781019280601f8501121561029f57835161022a81610ad1565b94610237885196876109b2565b8186528a8087019260051b82010192831161029b57908a8894939201905b82821061027757505050015194851685036102735790939538610101565b8580fd5b90809293945051808b0b8103610297578152879392918b01908b01610255565b8a80fd5b8980fd5b8780fd5b815181529082019082016101fc565b8680fd5b8480fd5b82513d86823e3d90fd5b845486528c98508b97509094019392830192016100da565b5080fd5b5082906060366003190112610600576102f761099c565b67ffffffffffffffff9260249182358581116102b257366023820112156102b25761032a90369085818601359101610a06565b60449182358781116105fc576103439036908601610a5b565b9190928051156105bb57341561056f5787519361037c8561036e60209485808401528c830190610aac565b03601f1981018752866109b2565b8851938985018581108c8211176104db57916103a79161ffff938c523487528d858801523691610a06565b921691821561052e578451156104ed57827f028b12065e382df332346773f4bd643023665b85c13b6590b3574de1f870c8026103f08b6103fd815192828493845283018b610aac565b8281038884015286610aac565b0390a260018060a01b03600254169351918951903060601b90820152601481528981019a8b1196818c1088176104db57908c9695949392918c8c52853b1561029f578c96879561049d9262c5803160e81b885284015260c0606484015261047e61046b610104850185610aac565b6043199283868303016084870152610aac565b903360a48501528960c48501528382030160e4840152603f1993610aac565b0301925af180156104d1576104b0578580f35b6104c05750505281808080808580f35b634e487b7160e01b85526041905283fd5b84513d88823e3d90fd5b634e487b7160e01b8d5260418952898dfd5b885162461bcd60e51b81528088018390526017818a01527f5061796c6f61642063616e6e6f7420626520656d70747900000000000000000081880152606490fd5b885162461bcd60e51b8152808801839052601c818a01527f496e76616c69642064657374696e6174696f6e20636861696e2049440000000081880152606490fd5b875162461bcd60e51b81526020818801526022818901527f496e73756666696369656e742066756e647320746f2073656e64206d657373618187015261676560f01b6064820152608490fd5b875162461bcd60e51b81526020818801526017818901527f4d6573736167652063616e6e6f7420626520656d70747900000000000000000081870152606490fd5b8880fd5b8280fd5b5082346106005760203660031901126106005735600354811015610600576003602093527fc2575a0e9e593c00f959f8c92f12db2869c3395a3b0502d05e2516446f71f85b01549051908152f35b50346102dc57816003193601126102dc5760025490516001600160a01b039091168152602090f35b5091346102dc5760603660031901126102dc5761069561099c565b67ffffffffffffffff91906024358381116102b6576106b79036908401610a5b565b50506044358381116102b6576106d09036908401610a5b565b600254875192956001600160a01b03919091169392919060208301908111838210176107c75761ffff9260c48a979695936107629389528a83528089519a8b998a98899863040a7bb160e41b8a52169088015230602488015260a060448801528160a4880152838701378a828287010152601f801991011684018a606486015260c08582030160848601520190610aac565b03915afa9081156107bd57828092610783575b505082519182526020820152f35b915091508282813d83116107b6575b61079c81836109b2565b810103126107b35750602081519101513880610775565b80fd5b503d610792565b83513d84823e3d90fd5b634e487b7160e01b885260418652602488fd5b50829034610600576080366003190112610600576107f661099c565b67ffffffffffffffff9190602435838111610273576108189036908601610a3d565b90604435908482168092036102b25760643585811161029f5761083e9036908801610a3d565b6002549096906001600160a01b0316330361094d5750835180845161086881836020809901610a89565b8101039020907f0627062b7968b87a52fc6435ce86b79b37bb403c0edb109a34516d7fa1e190ea61ffff8651928684521691806108a78782018b610aac565b0390a48351840192828583860195031261027357818501519081116102735784019383603f860112156102735781850151906108e2826109ea565b946108ef855196876109b2565b8286528483880101116102b25761092e84927fe487dcd0ac988fcd7d317c5b9f1647159785ff57b218b8089d667f964abf6eee97848689019101610a89565b01516109438351948486958652850190610aac565b918301520390a180f35b608490602086519162461bcd60e51b83528201526024808201527f4f6e6c7920656e64706f696e742063616e2063616c6c20746869732066756e636044820152633a34b7b760e11b6064820152fd5b6004359061ffff821682036109ad57565b600080fd5b90601f8019910116810190811067ffffffffffffffff8211176109d457604052565b634e487b7160e01b600052604160045260246000fd5b67ffffffffffffffff81116109d457601f01601f191660200190565b929192610a12826109ea565b91610a2060405193846109b2565b8294818452818301116109ad578281602093846000960137010152565b9080601f830112156109ad57816020610a5893359101610a06565b90565b9181601f840112156109ad5782359167ffffffffffffffff83116109ad57602083818601950101116109ad57565b60005b838110610a9c5750506000910152565b8181015183820152602001610a8c565b90602091610ac581518092818552858086019101610a89565b601f01601f1916010190565b67ffffffffffffffff81116109d45760051b6020019056fea2646970667358221220e278a1527fd8d52e8384a86555ee8ed32b20130a9ceaa6237f125190620540c464736f6c63430008180033","linkReferences":{}},"methodIdentifiers":{"endpoint()":"5e280f11","estimateFees(uint16,bytes,bytes)":"45e380a3","feedIndexes(uint256)":"dae2f4bc","getFtsoV2CurrentFeedValues()":"f601bc8b","lzReceive(uint16,bytes,uint64,bytes)":"001d3567","send(uint16,string,bytes)":"dc6ab99d"},"id":24}